:400000000080002011000000190100001901000008B5044B1A6803F53F5302331A6000F09BF800BFFA46004010B5054C237833B9044B13B10448AFF300800123237010BDB0
:400040008881FF1F0000000008160000084B10B51BB108480849AFF300800848036803B910BD074B002BFBD0BDE81040184700BF00000000081600008C81FF1F0881FF1F05
:400080000000000008B5034A13680133136000F047FA08BDA481FF1F014B1868704700BFA481FF1F30B5C3B00025029503A82946FC2200F088FE62B6154800F023FA00F022
:4000C000F7FC00F033FC00F045FC002406E0002000F048FC00F05EFC054401343F2CF6DD2846002D01DA05F13F00801100F088FC0546FFF7D1FF0346009502A84FF48071DC
:40010000044A00F069FE02A800F0ECFCDDE700BF850000000C16000008B500F01DFE03680C2B00D1FEE7FEE708B5094B1A681044084BC31A802B02DC054B186005E000F02C
:400140000BFE0C2303604FF0FF32104608BD00BF0C81FF1FC881FF1F08B5104E104D16E029686B68AC68002204E051F8040B43F8040B0432A242F8D1E868002203E00021A1
:4001800043F8041B04328242F9D11035013E002EE6D100F0E7FDFFF785FFFEE701000000BC16000008B5124A124B1A60124A136843F40073136000230AE0032B03D80F4A5F
:4001C00052F8231000E00E490E4A42F8231001332F2BF2D90C4B1A780C4B1A70094A0C4B1A6000F0E5F800220A4B1A6008BD00BF0004FA050CED00E014ED00E00000000040
:40020000190100000080FF1FBC7600400481FF1F08ED00E00081FF1FFEE700BFF0B40022174611E050F82760F3B226F0FF0608E001EB420511F812406D78A5550132013B72
:40024000DBB2002BF4D10137172FEBD9F0BC7047104B1B78DBB203F007010F4A11701B090132137048F240020C4B1A8042F2200220331A80082203F6C4131A702022043385
:400280001A70282254331A704422A3F2E2231A70704700BFCF0100496E5800401C51004008B50A46002100F08EFD08BD08B500F07FFD08BD38B50024314B1C805022023361
:4002C0001A70192502331D8018232E4A137045F6BF5102321180023213702B482B490422FFF7E4FF02222A4B1A7008224FF040231A70032103F500731970264B1B78DBB25F
:4003000025490B70254B1A8041F25122023B1A800CE0234B1B7803F0010343EA440404F003044FF4F07000F007FD013D0DB1032CEFD115B90320FFF76FFF1A4B4FF4807288
:400340001A8007221A70002217490A704820023108701A700222033B1A7004220A331A70124A137843F007031370013A137843F001031370013A137843F08003137038BDA3
:40038000804000408640004000410040440400480043004008010049A146004022420040254200400440004006400040A243004038B572B6364A137843F0040313700024AF
:4003C0000CE0344963001A1952000A4423445B00C8589188FFF764FF0134E4B2072CF0D900240FE02B49A3001A1952000A4452F8300F23445B000B4451681A8FFFF756FFFF
:400400000134E4B2012CEDD94FF090402249FFF705FF0A25214B1D70214A137843F0020313701032137843F0020313701D4C237843F040032370A2F58632513A137843F084
:4004400010031370184819490822FFF72FFF184818492A46FFF72AFF174818490822FFF725FF174A137843F008031370154D61232B70FFF71FFF81232B700122124B1A70F7
:40048000FFF7E6FE114821460E22FFF70FFF38BDE84600401C160000600000488358004003500140A04300400251004028040048C051004030040048125100403C04004860
:4004C000224300400048004004000840B0430040014B1B681864704708ED00E04001C0B2014B1870704700BF00E400E00122014B1A60704700E100E00122014B1A607047B7
:4005000080E100E010B50446FFF7F6FF2046FFF7DFFF0720FFF7E2FFFFF7E8FF10BD00BF0122014B1A60704780E200E001BE704708B5034B1B7A03FB00F000F0FDFB08BD4C
:400540001081FF1F70B504460E46074B1D681F2802D90020FFF7EAFF04F01F04103455F8240045F8246070BD08ED00E038B504460D46072902D90020FFF7D8FF1F2C02D9DA
:400580000020FFF7D3FF04F01F0000F1604000F564406D01EDB2057038BD00BF10B59DF80840012C4AD10138092826D8DFE800F00525250525250D15251D0F2B02D9214857
:4005C00000781BE02048007818E00F2B02D91F48007813E01E48007810E00F2B02D91D4800780BE01C48007808E00F2B02D91B48007803E01A48007800E0002040B201EBCF
:40060000401101FB02F1C90B8AB20D2B0BD8C3F10E0289B211418AB2124901EB8401013301F8023C05E00F4B03EB84030F2103F8021C013C0B4B23F8242010BD0020FFF7B9
:4006400075FF10BD180100491C010049190100491D0100491A0100491E0100491B0100491F010049A881FF1FF8B5074600F06CFB06460D4D2B7843F003032B700B4C237866
:4006800043F0030323700A4B1F700320FFF750FF2B7803F0FC032B70237803F0FC032370304600F055FBF8BDF8460040F94600409258004038B50022304B1A7101285BD1D6
:4006C00038222F4B1A70042202331A70072201331A70002401331C7001331C703F2201331A7002331C7001331C7001331C7001250A331D70502203F527631A7013220133F5
:400700001A702B2201331A7001331C70442003331870482201331A70022201331A7002331D70112201331A70192201331A70972201331A70FFF798FFC022124B1A7003229A
:4007400001331A70052205331A7001331D7001331C700A2201331A704FF47A520A4B1A600E20294600F0E8F93A20294600F068FA1D200649FFF7E6FE38BD00BFA881FF1F9F
:40078000004E004094580040BC81FF1F4D0A0000F0B583B0284D01272F70284E00247471102000F0B7F9102000F038FA1D200721FFF7DCFE0422224B1A7001331C700733CC
:4007C0001C70204A137843F0180313701E4B1C7003F2F5231C7001331C700A22A3F209331A7001331C7002331C705B2205331A705E2201331A7004331C701422A3F68C2393
:400800001A700097052049F25B114FF400421023FFF7C4FE2B7806EB830313F8022C0B4B1A702B78013B36F82320094B1A802878FFF740FF03B0F0BD2081FF1FA881FF1FAF
:4008400096580040075B0040935800400E4E00400C4E004070B500F077FA06462A4B1B782A4B1A7842F001021A701A7842F010021A7010331A7842F001021A701A7842F0EF
:4008800010021A70224D2B7843F002032B70214C237843F0020323701F4A137843F0030313700320FFF744FE2B7803F0FD032B70237803F0FD032370184A137843F006035E
:4008C00013707A22164B1A70164A137843F0010313701032137843F0010313700F3A137843F0010313701032137843F0010313704FF000530C4A1360A2F5C07213603046A0
:4009000000F026FA70BD00BF2081FF1FAA430040F8460040F9460040915800407758004082580040A143004080E200E008B5084B9B794BB9064BDB7913F0FF0F01D1FFF774
:4009400027FF0122024B9A71FFF784FF08BD00BFA881FF1F024A137843F0010313707047004E0040094B1B7913F0FF0F03D0074B5B79DBB203E0064B1B7803F00103012B53
:4009800001D00028EED01846704700BFA881FF1F014E0040154B1B7803F00303012B07D8134B1888023B1B889BB243EA004013E0022B0AD10E4B1888023B1B7843EA004313
:4009C0000C4A107843EA002006E00B4B188883B2074A108843EA0040084B1B7913F0FF0F02D00022054B5A71704700BF144E0040124E0040114E0040104E0040A881FF1F22
:400A00000F4B1B78DBB2012B06D00D4B1B78DBB2022B01D00A4B1B780A4B1B68002B00DA1F335A1147F6122303FB00F090FBF2F00549096803FB01F393FBF2F3C01A7047C0
:400A40002081FF1FBC81FF1FC081FF1F704700BF7222084B1A70202202331A700622A3F261131A70472210331A70002203F5A9731A7070478865004010B500F065F9044623
:400A80000A4A137843F0200313700232137843F0100313700132137843F01003137000F03BF9204600F054F910BD00BF9865004008B5054B1B7823B9FFF7CAFF0122024B34
:400AC0001A70FFF7D9FF08BDB081FF1F034B1B7813F0040FFAD1024B187070476B6500404864004038B5074B1B782BB938BDFFF7EDFF0134A4B201E005460024285D00282B
:400B0000F5D138BDB081FF1F014B188880B2704780400040034B1A7800F0F80010431870704700BF82400040024B187800F00700704700BF8240004070B505460E46FFF7B5
:400B4000F3FF0446FFF7E0FF854256D02B4B1B7803F0010294B900B185B938B9284B1D80284A137803F0BF03137070BD254A137843F040031370224B1D8070BD22B30023B7
:400B800021490B7001240F310C7004310B700C390B7803F07F030B701A4B1B7813F0080F00D08DB9194B18800721013B1970164B1B7813F0010FFAD110490B7803F0FE0354
:400BC0000B700021104B19700C4B1B7813F0010F0DD00E4B1D800EB1032200E001220A4B1A70094B1B7813F0010FFAD170BD044B1D8002490B7813430B7070BDA243004010
:400C000080400040824000400140004002400040014B188880B2704700410040034B1A7800F0F80010431870704700BF02410040024B187800F00700704700BF02410040F0
:400C400070B505460E46FFF7F3FF0446FFF7E0FF854256D02B4B1B7803F0010294B900B185B938B9284B1D80284A137803F0BF03137070BD254A137843F040031370224BBE
:400C80001D8070BD22B3002321490B70012413310C7004390B7008390B7803F07F030B701A4B1B7813F0080F00D08DB9194B18800721013B1970164B1B7813F0010FFAD159
:400CC00010490B7803F0FE030B700021104B19700C4B1B7813F0010F0DD00E4B1D800EB1032200E001220A4B1A70094B1B7813F0010FFAD170BD044B1D8002490B7813430C
:400D00000B7070BDA143004000410040024100400140004002400040054A137843F0020313701032137843F002031370704700BFA2430040000000000230800803D000BFDC
:400D400001380046FCD17047EFF3108072B6704780F31088704700BF014B1868704700BF8481FF1F0E4B70B51E460E4C0025E41AA410A54204D056F8253098470135F8E7D4
:400D800000F08AFC084B094C1E46E41AA4100025A54204D056F8253098470135F8E770BDA4160000A4160000A4160000AC16000010B5431E0A44914204D011F8014B03F800
:400DC000014FF8E710BD03460244934202D003F8011BFAE7704700000CB430B5164B0C1E9DB01D6804DA8B232B604FF0FF301EE04FF40273ADF814300CBF234604F1FF3391
:400E0000049307934FF6FF7302900690ADF81630284621AB02A9209A019300F069F8431CBCBF8B232B6014B1029B00221A701DB0BDE8304002B070478481FF1F2DE9F04757
:400E40008E688246B3420C469046994640D38A8912F4906F3AD02568096902236F1A656905EB450595FBF3F57B1C4B449D4238BF1D4653050FD5294600F030FB064698B19C
:400E800021693A46FFF794FFA38923F4906343F08003A38113E02A4600F076FB064670B95046216900F0D6FA0C23CAF80030A3894FF0FF3043F04003A381BDE8F08726617E
:400EC0003E4426604E466561ED1BA560B14500D24E4632462068414600F0A0FAA36800209B1BA36023681E442660BDE8F08700002DE9F0439DB003938B8906461C060D46A2
:400F000090460CD50B6953B9402100F0E7FA2860286110B90C233360CCE040236B610023099320238DF8293030238DF82A3043461C4613F8012B1AB9B4EB08090FD002E059
:400F4000252AF5D1F8E73046294642464B46FFF775FF013000F0A980099B4B4409932378002B00F0A28000234FF0FF3204930793059206938DF853301A9304F101084446F3
:400F8000DFF8489121784846052200F039FA08F10108049B30B1C9EB00000122824013430493ECE7D80644BF20228DF85320190744BF2B228DF8532022782A2A02D0079952
:400FC00023460EE0039A0134111D12680391002ABBBF524243F0020307920792B8BF04930AE01C4622780133303A092A03D80A2000FB0121F5E7079123782E2B1AD16378D5
:401000002A2B0AD1039B02341A1D1B680392002BB8BF4FF0FF3305930CE0611C00220C4623780131303B092B03D80A2000FB0232F5E70592DFF8988021784046032200F09F
:40104000DFF938B1049AC8EB00004023834013430493013421781A48062204F101088DF8281000F0CDF988B1164B33B9039B073323F007030833039313E003AB009330468C
:4010800004A92A46104BAFF3008007E003AB0093304604A92A460C4B00F092F8421C074603D0099B3B44099341E7AB895B0601D4099801E04FF0FF301DB0BDE8F08300BFA7
:4010C0006C160000000000003D0E000062160000681600002DE9F84391461F468A680B6906469342B8BF1346C9F8003091F843200C46DDF8208012B10133C9F80030236832
:40110000990642BFD9F800300233C9F80030256815F006051CD094F843302268003318BF012392061FD5E118302081F843005A1C94F845102244023382F8431013E03046EF
:40114000394604F119020123C047013007D00135E368D9F800209B1A9D42F0DBDBE74FF0FF30BDE8F8833046394604F14302C0470130F4D02268D9F80050E36802F0060271
:40118000042A08BF5D1B2269A3680CBF25EAE57500259342C4BF9B1AED184FF00009A9450ADA3046394604F11A020123C0470130D5D009F10109F2E70020BDE8F883000083
:4011C0002DE9FF410C461746227E98466E2A06460A9B01F1430100F0B08012D8632A23D00AD8002A00F0BD80582A40F0CC8084F84520DFF804E257E0642A1ED0692A1CD01C
:40120000C1E0732A00F0B18009D86F2A2ED0702A40F0B980226842F0200222603FE0752A24D0782A3BD0AEE01A6804F14205111D1960136884F84230A9E020681A6810F026
:40124000800F02D0101D186008E010F0400F02F10400186002D0B2F9003000E01368002B3EDA2D225B4284F8432039E020681A6810F0800F02D0101D186007E010F0400F4D
:4012800002F10400186001D0138800E01368227EDFF864E16F2A0CBF08220A221CE07822DFF858E184F845202268186812F0800F00F104051D6003D1550601D5038800E079
:4012C0000368D00744BF42F0200222601BB9226822F0200222601022002084F8430002E0DFF814E10A226568002DA8BF2068A560A4BF20F00400206003B965B10D46B3FB1C
:40130000F2F002FB10331EF8033005F8013D03460028F4D100E00D46082A0BD12368DA0708D5236962689A42DEBF302305F8013C05F1FF35491B21612EE025681A6815F0B9
:40134000800F606903D0151D1D60136808E015F0400F02F104051D60136801D0188000E01860002323610D4616E01A68111D1960156800212846626800F042F808B1401BFA
:401380006060636804E004F1420584F8422001232361002384F84330CDF800803046214603AA3B46FFF796FE013002D14FF0FF301FE0304639462A462369C0470130F5D0B1
:4013C00023689B0705D4E068039B9842B8BF18460FE00025E368039A9B1A9D42F3DA3046394604F119020123C0470130DED00135F0E704B0BDE8F0817316000084160000EC
:4014000010B5C9B202449042034605D01C7801308C42F8D1184610BD002010BD814210B501EB020301D3421E0BE09842FBD28118D21AD34204D013F8014D01F8014DF8E796
:4014400010BD994204D011F8014B02F8014FF8E710BD000030B500293CD051F8042C0B1F1D49002AB8BF9B180A680C4612B95A600B6030BD93420DD219685818904201BF56
:401480005A5852181A60426823605A6030BD994203D80A4651680029F9D1146815199D420AD11B682344D0188842136012D10868034413604B680CE002D90C23036030BD97
:4014C0001C681819884201BF08684968001918605960536030BD00BFB881FF1F70B5CC1C24F0030408340C2C38BF0C24002C064603DA0C233360002070BD8C42F9D3204A61
:40150000136810461946A1B10A68121B0ED40B2A03D90A608B188C501FE08B420BBF5A684A6802605A6018BF0B4616E00B464968E9E7144D2B681BB9304600F04BF828609F
:401540003046214600F046F8421C0346D1D0C51C25F0030585420AD11C6003F10B001A1D20F00700821A0AD05142995070BD3046E91A00F02FF80130BBD02B46ECE770BDD3
:40158000B881FF1FB481FF1FF8B5074615460E4621B91146BDE8F840FFF7A0BF1AB9FFF759FF2846F8BD00F025F8A8420ED238462946FFF793FF044650B131462A46FFF7BD
:4015C000F7FB38463146FFF745FF01E03046F8BD2046F8BD38B5064C0023054608462360FEF7A2FD431C02D1236803B12B6038BDC481FF1F51F8040C0028BEBF091851F8D5
:40160000043CC0180438704700000000743D256C642009763D25640D0A000000205100405000F05100401000000001400010001401408006001B0140000100400140000AD7
:40164000004C0140000200500140200060520040A00300480600801A0140A803004880004300232D302B2000686C4C006566674546470030313233343536373839414243F4
:40168000444546003031323334353637383961626364656600000000F8B500BFF8BC08BC9E4670474D000000A5010000F8B500BFF8BC08BC9E46704729000000D0160000F9
:4016C0000881FF1F80000000400000000000000000000000C881FF1F0000E02EC05D00001800000000366E0101000000000000000000000000000000000000000000000033
:401700000000000000000000000000006016000000000000000000000000000000000000000000000000000000000000000000000000000000000000000000000000000033
:401740000000000000000000000000002481FF1F000000000000000000000000000000000000000000000000000000000000000000000000000000000000000000000000A6
:401780000000000000000000000000000000000000000000000000000000000000000000000000000000000000000000000000000000000000000000000000000000000029
:4017C00000000000000000000000000000000000000000000000000000000000000000000000000000000000000000000000000000000000000000000000000000000000E9
:4018000000000000000000000000000000000000000000000000000000000000000000000000000000000000000000000000000000000000000000000000000000000000A8
:401840000000000000000000000000000000000000000000000000000000000000000000000000000000000000000000000000000000000000000000000000000000000068
:020000040003F7
:0200000480007A
:400000000365004061080140350901400215014004160140011701403E18014043190140131A0140471B014002400140014101400142014001430140024401400145014081
:4000400003460140034701400448014001490140034C01400A4D0140045001400151014088728A388B0F0002040105060708080C09060B081401150617181A011B101C088D
:400080001E041F0A21142308240425012608280C29012D01320C331E3403350138203B0840244103450C46BE480D49FF4AFF4BFF4EF04F44500C580459045A045C115D01BA
:4000C0005F0166C06A406B028410852C860C870389408A038F139010940C95319611970E99319B06A01CA202A414A708A809AA10AB0CB140B21FB330B50FB908BB20BF059B
:40010000C006C704C9FFCA07CBFFCC40CD20CEF0CF05D008D804D904DA04DC11DD01DF01E040E1A8E240E3200010031004200648071009090D180E0210A4151818101D142B
:40014000200421102208234026042714280429102A042C802D102E182F02310833103510368438943E203F044508466047104A084F04504452C45420554087408C048D01D6
:40018000C076C2ECC46ECAF6CC76CE6ED0E0D204E402B501EC1038023E0158045F011D0102020301040408010C010D011001140419011A041C012204230126022A043004F4
:4001C00031013201340239023E1556025711580459045B045C105D105F0182408402870289068A338B018C4F8E1090419280944C9623970398739A0C9B059C03A008A4044D
:40020000A80CAB06AC7FAF01B07CB307B40FB680BA22BB0AD804D904DC11DF0101080385048005100602075108080A040B820D080F4610A813401520165019101A041B9140
:400240001C041E602108234027402804290C2A402E02310833103510380839203F425E20652067046C106D106E186F0274A8760988088B019008912093049420950896102B
:40028000980499049A409B14A140A508A702B484B504B601C0FFC2FFC47FCA8CCC26CE96D6200A010C060E01100718011A0620062201240228062C0430073A0254185804B4
:4002C0005B045C015D105F010306048205040744081009400B410C400D020E080F221068120315181602170118801B021DA21E201F0127092C482F02341035103602374476
:400300003D803E08458047054C014F60561259015D205E405F0960046140812189448A108B40900491109240934094809508978299349A099B049E10A028A140A204A3112B
:40034000C0F3C2FAC4FFCAB0CCF0CE50D0D0D230D6F1D80CEC503340CC109F409F409F407C04DE01940445089404D00184049404A508251027409F40C8A0B5109404A00424
:40038000A508108074048880A004B404B508C408DE04E601EC0A00020C0210021C02000380800000400000006000000044041100000060000001600061080E006000000206
:4003C0000702000C000E6000000E800022001100070C0000000C8002070080006001180E0000000000004410630504000100E0C028FFFFFF62A0F0410C0000000100000044
:40040000040404041111000100000000000040020010301000101012000000000000000000000000000000000000000000000800800040808000800000000000000B0B0067
:400440000000C0003A001801000000000000000000000000000000000000000000000000000000000000000000000000000000000000000000000000000000000000000069
:40048000000000000000000000000000000000000000000000000000000000000000000000000000000000000000000000000000000000000000000000000000000000003C
:4004C00000000000000000000000000000000000000000000000000000000000000000000000000000000000000000000000000000000000000000000000000000000000FC
:4005000000000000000000000000000000000000000000000000000000000000000000000000000000000000000000000000000000000000000000000000000000000000BB
:40054000000000000000000000000000000000000000000000000000000000000000000000000000000000000000000000000000000000000000000000000000000000007B
:0200000490006A
:0400000000004005B7
:0200000490105A
:04000000BC90ACAF55
:0200000490303A
:02000000E675A3
:0200000490402A
:4000000000000000000000000000000000000000000000000000000000000000000000000000000000000000000000000000000000000000000000000000000000000000C0
:400040000000000000000000000000000000000000000000000000000000000000000000000000000000000000000000000000000000000000000000000000000000000080
:400080000000000000000000000000000000000000000000000000000000000000000000000000000000000000000000000000000000000000000000000000000000000040
:4000C0000000000000000000000000000000000000000000000000000000000000000000000000000000000000000000000000000000000000000000000000000000000000
:0200000490501A
:0C00000000012E16106900012E1EF6DE15
:00000001FF